:020000040000FA
:10000000000800202D270000B52300004B2400002D
:1000100000000000000000000000000000000000E0
:100020000000000000000000000000003D2900006A
:100030000000000000000000F1240000B5230000D3
:10004000B5230000B5230000B5230000B523000050
:10005000B5230000B5230000B5230000B523000040
:10006000B5230000B5230000B5230000B523000030
:10007000B5230000B5230000B5230000B523000020
:10008000B5230000B5230000B5230000B523000010
:10009000B5230000B5230000B5230000B523000000
:1000A000B5230000B5230000B5230000B5230000F0
:1000B000B5230000B5230000B5230000B5230000E0
:1000C000B5230000B5230000B5230000B5230000D0
:1000D000B5230000B5230000B5230000B5230000C0
:1000E000B5230000B5230000B5230000B5230000B0
:1000F000B5230000B5230000B5230000B5230000A0
:10010000B5230000B5230000B5230000B52300008F
:10011000B5230000B5230000B5230000B52300007F
:10012000B5230000B5230000B5230000B52300006F
:10013000B5230000B5230000B5230000B52300005F
:10014000B5230000B5230000B5230000B52300004F
:10015000B5230000B5230000B5230000B52300003F
:10016000B5230000B5230000B5230000B52300002F
:10017000B5230000B5230000B5230000B52300001F
:10018000B5230000B5230000B5230000B52300000F
:10019000B5230000B5230000B5230000B5230000FF
:1001A000B5230000B5230000B5230000B5230000EF
:1001B000B5230000B5230000B5230000B5230000DF
:1001C000B5230000B5230000B5230000A1270000DF
:1001D000B5230000B523000000F002F800F054F849
:1001E0000CA030C8083824182D18671EA246AB464C
:1001F00054465D46AC4201D100F046F87E460F3EC3
:10020000B6460FCC0126334200D0FB1A3343A24638
:10021000AB461847680A0200880A0200002300243F
:1002200000250026103A01D378C1FBD8520700D32D
:1002300030C100D50B60704710B5692902D100F0BC
:10024000D7F910BD642902D100F0D2F910BD75298B
:1002500002D100F0CDF910BD782902D100F02AFAC0
:1002600010BD732902D101F0F8F810BD002010BDB7
:100270001FB50348034901F038F801F0F1FA1FBD3A
:10028000D0C30020000001200548854603B405F0D6
:10029000EBFC03BCFFF7ECFF01F0BAFC0AF0D2F86C
:1002A0000010002070B505460C46164602E00FCC43
:1002B0000FC5103E102EFAD2082E02D303CC03C570
:1002C000083E042E07D301CC01C5361F03E0217878
:1002D0002970641C6D1C761EF9D270BD00487047F1
:1002E000709C002070B51CF04DFD012304460022D7
:1002F0001B07C01A914101D3002070BD204600F0B9
:1003000007F8050002D0214600F08EFD284670BD9A
:1003100070B5064600F0CCFF056830460B30C408C7
:10032000E400B44201D8002070BD68682A46002865
:1003300018D00168A14211D30B46214608318B42E7
:1003400008D3436801194B6003681B1B0B605160A5
:10035000046001E041685160001D70BD02464068C4
:100360000028E6D12146284600F0AAFF0028DCD16B
:1003700070BD70B50446051F00F09AFF0068002CA0
:100380001AD0446801E020466468002C01D0AC42D9
:10039000F9D301680A18AA4204D12A6805468918C7
:1003A000016000E0456028684119A14205D16168FB
:1003B000696021684018286070BD6C6070BD10B520
:1003C000202A04DB0146203A9140002010BD9140D4
:1003D00020239C1A0346E3401943904010BD10B5FA
:1003E000202A04DB0846203AD040002110BD0B46ED
:1003F0002024D340D040A21A91400843194610BD92
:100400004343514330B55C18010C130C0D4692B2B6
:100410005D4380B251432C19054655430A0C09042B
:100420004D1962415843010C00044019514130BD3F
:10043000FEB5054610460C46184373D0AE468C46B2
:100440000020AD1A01469C4167D36646002701246F
:100450003D46B61A9D4102D313463A4621246546CD
:1004600076462F04360C3E432D0CB61A9D4104D31C
:10047000150C1B042B4312041034654676462F06D8
:10048000360A3E432D0AB61A9D4104D3150E1B02AF
:100490002B4312020834654676462F0736093E4341
:1004A0002D09B61A9D4104D3150F1B012B431201D0
:1004B000241D65467646AF07B6083E43AD08B61A1A
:1004C0009D4104D3950F9B002B439200A41C6546CD
:1004D0007646EF0776083E436D08B61A9D411AD35B
:1004E00092185B41641C16E0001876466546494147
:1004F000B71A9D410191009009D36046B11A984105
:100500008E468446009801990025401C6941DD070C
:1005100052082A435B08641EE6D57246634603B060
:10052000F0BDFFE700200146C046C0462A462346EC
:10053000F5E700000FB4054910B503AA029800F0D2
:1005400091FF10BC08BC04B018470000249D002097
:1005500070B5044685690068C10601D5302600E003
:100560002026C00707D070BD62683046A16890475A
:10057000206A401C20626D1EF6D570BD70B5044621
:1005800085690078C00707D170BD6268A168202026
:100590009047206A401C20626D1EF6D570BD70B574
:1005A0000C460546012A05D02878800600D5EA6960
:1005B000002302E0012305E05B1C934202D2E05CD1
:1005C0000028F9D1A869E618C01AA861286AC018DD
:1005D00028622846FFF7BCFF04E06A682078A96813
:1005E000641C9047B442F8D32846FFF7C7FF70BD9C
:1005F000F7B5002575291068009914A611D0C046DA
:10060000C046002802DA404211A608E000990968B5
:100610008A0701D50FA602E0490704D50EA60125D9
:1006200001E0C046C046009F0024243704E001F0EA
:10063000E9F830313955641C0028F8D12B46324690
:100640002146009800F085FEFEBD0000000000007D
:100650002D0000002B00000020000000F8B50F4620
:100660000188090502D5224C7C4402E0204C7C44E0
:100670000E3405460021243508E016071209360F0E
:10068000A65D6E541E0732431B09491C16461E43C5
:10069000F3D1224604780023240705D5702F06D015
:1006A000002901D00223113200F053FEF8BD0123CE
:1006B0001032F9E770B504460D4621461068C04671
:1006C000C0460023024629462046FFF7C7FF70BDFB
:1006D000D21DD308DB000CCBC0E730B40368202464
:1006E0001268234303600823C36130BC0023B5E7CD
:1006F000A8C80100F3B50446002081B0206220465E
:10070000E1688847002872D0252802D06268A16875
:10071000ABE0594F00267F442046E16888472028F7
:10072000054608DB312D06D27819203800780028DC
:1007300001D00643F0E7B00701D50420864300202E
:10074000E0610746A0612A2D0AD028461CF033FB41
:10075000002827D0B8000019303D0090856119E0CD
:100760000298BA00121902C8916102902046E1680D
:100770008847012F054617D1E06900281FDA20209D
:1007800086431CE000980A2180694843009940197B
:10079000303888612046E168884705461CF00BFB2D
:1007A0000028EFD1012F0AD02E2D08D12046E16874
:1007B00088470546202006437F1C022FC3DBA06923
:1007C000002803DA4042A06101200643F00701D06F
:1007D000102086436C2D0BD0682D09D04C2D3CD0B9
:1007E0006A2D38D0742D38D07A2D36D016E040E0FE
:1007F000E1682F4620468847B842054609D16C2F4C
:1008000029D001208002E16806432046884705463A
:1008100004E06C2F1DD0FF2001300643002D28D0AE
:1008200028464138192803D80120C0020643203544
:10083000204626602946029A1646FFF7FDFC00284E
:1008400010D001280BD0F61DF008C000083002902F
:1008500055E74020E1E78020D5E70020D3E7361DAB
:1008600002964CE762682846A1689047206A401CBF
:1008700044E7206AFEBD000022C80100F8B5044626
:1008800016460D464769007B800730D0384605F094
:1008900008FA00282BD132461026002A25D0012A3A
:1008A00002D0022A23D104E0204600F0EBFE4519D5
:1008B0001BE0384605F0E3F9E16831430028E160C8
:1008C00004DA204600F026FF0120F8BDC9030BD54D
:1008D0006268E16A914200D81146A26989182269CA
:1008E000891A814200DD08462D18002D01DA022008
:1008F000F8BDE16A6068E268814206D29103E06275
:1009000003D5012149048A433243A669AE4211DC72
:10091000E16A814201D90B4600E003469F19236931
:10092000FF1AAF4206DD814201D90F4600E00746BB
:100930009F4206D1202002430020A060A5622060D3
:100940000DE0AD1BE669AE1B8142A66000D90846EA
:10095000C01A281A2060581960602020824303487A
:1009600002400020E26040342072F8BDBFCFD7FFC4
:10097000F7B516460C46104600F06EF82078611C5C
:1009800061280AD0722802D0772839D102E00125E7
:10099000002404E00225042401E02D4D0824022255
:1009A000032301270878491C2B2806D0622807D08A
:1009B0002039C87F742807D008E01D431443F1E7AD
:1009C000042005433C43EDE71020044300982146F2
:1009D00005F06AF9411C13D00021316171600121D9
:1009E000F5604902F1617061200704D530460222AA
:1009F0000021FFF743FF306D384330653046FEBDC0
:100A00000020FEBDF8B50D460646124C206DC1070C
:100A100004D0410804D044086400F7E7224610E0FF
:100A20005420FFF775FC070010D07908206D4900AD
:100A300001221143084354212065384600F0F6F99D
:100A40003A4629463046FFF793FFF8BD0020F8BD2F
:100A500002800000D09C0020FEB504464669006973
:100A60000F4F0190E56800200090A80707D02046AE
:100A700000F080FE304605F0FFF8002801DA384625
:100A8000FEBD280502D50198FFF773FC4C212046D6
:100A900000F0CCF9206D4008400020650098FEBDB4
:100AA000FFFFFFFF10B50478002C01D00A4603E0D9
:100AB000002010BDA342FCD01378521C002BF9D1AA
:100AC000401CF0E730B503461D78002D08D00A46DB
:100AD0001478521C002C03D0AC42F9D15B1CF3E714
:100AE000181A30BD30B505460B462A461C781078DA
:100AF000521C5B1C002801D0A042F7D0002C03D070
:100B0000002802D06D1CEFE7284630BD034610B523
:100B10000B439B070FD1042A0DD308C810C9121F1D
:100B2000A342F8D018BA21BA884201D9012010BDD9
:100B30000020C04310BD002A03D0D30703D0521CAD
:100B400007E0002010BD03780C78401C491C1B1BDB
:100B500007D103780C78401C491C1B1B01D1921E45
:100B6000F1D1184610BD0000034670B502460B4394
:100B70009B070FD10E4CE60100E008C208C91D1BFF
:100B80009D433542F9D0D9B21170521C00290DD0C5
:100B90001B0AF8E70B78491C1370521C002B05D078
:100BA0000B78491C1370521C002BF3D170BD000050
:100BB0000101010130B5441C03E00178401C00290B
:100BC0000DD08107F9D10B4BDD0104C8D11A914337
:100BD0002940FAD0001B0A0603D0C01E30BD001BFE
:100BE00030BD0A0401D0801E30BD0902FCD0401E79
:100BF00030BD0000010101010346F0B50B439B0726
:100C00002DD1244DEF01042A29D308C810C95E1B39
:100C10009E43121F3E4017D0D8B2E1B2401A3106AF
:100C2000014310D198B2A1B2401A310401430AD154
:100C300018022102000A090A401A3102014302D1B6
:100C4000180E210E401AF0BDA342DCD018BA21BA0A
:100C5000884201D90120F0BD0020C043F0BD002A28
:100C600001D10020F0BD03780C78401C491C002BFA
:100C70000DD0A3420BD1521E09D003780C78401C32
:100C8000491C002B03D0A34201D1521EEBD1181BEB
:100C9000F0BD000001010101F8B5042A2CD383073F
:100CA00012D00B78491C0370401C521E83070BD0D6
:100CB0000B78491C0370401C521E830704D00B782C
:100CC000491C0370401C521E8B079B0F05D0C91A8C
:100CD000DF002023DE1B08C90AE0FFF7E3FAF8BDB6
:100CE0001D4608C9FD401C46B4402C4310C0121FCD
:100CF000042AF5D2F308C91A521EF0D40B78491C05
:100D00000370401C521EEAD40B78491C0370401C2F
:100D1000012AE4D409780170F8BD431A70B59342F2
:100D20001BD28918801804E0491E401E0B78521E01
:100D300003709307F8D106E01039103878C91039DC
:100D400078C01038103A102AF6D203E0091F001FAD
:100D50000B680360121FF9D570BDFFF7A3FA70BDD1
:100D6000F8B5064614460843800707D0751AA54211
:100D700019D20819102D13D2311907E03046FFF7A8
:100D8000CCFFF8BD401E491E02780A70641EF9D2DD
:100D9000F8BD471B2A463946FFF77EFF641B3846DD
:100DA000A542F6D3011B22463046FFF775FFF8BD7A
:100DB000134610B50446CAB2194610028218100430
:100DC0008218204600F021F8204610BDD2B210B59E
:100DD00013029A1813049A1800F017F810BDD2B233
:100DE00010B513029A1813049A1800F001F810BDF8
:100DF00001E004C0091F0429FBD28B0701D5028042
:100E0000801CC90700D00270704700290BD0C307AF
:100E100002D00270401C491E022904D3830702D568
:100E20000280801C891EE3E70022EEE70022DFE754
:100E3000024670B50A4392072AD11E4DEE0104C83E
:100E400008C9541B9443344017D0D0B2D9B2401AC9
:100E50002106014310D190B299B2401A21040143F6
:100E60000AD110021902000A090A401A210201439C
:100E700002D1100E190E401A70BD9A42DFD010BA7E
:100E800019BA884201D9012070BD0020C04370BD4D
:100E900002780B78401C491C002A09D09A4207D1DD
:100EA00002780B78401C491C002A01D09A42EFD0EE
:100EB000D01A70BD01010101F0B50C46871A9C41A2
:100EC0000D46861A9D4103D2C01BA141D219634130
:100ED0000D0D1F0DC94EEC1BAE435CD07F057F0D81
:100EE0000026002F51D02D05AC46A943DD02012379
:100EF000ED0A1B051D4320231B1B24D41746E74086
:100F0000381871412F46E740CC199D4028183146CA
:100F100061410C0D27D161449A4013D50023401C38
:100F2000594152000ED14008400001224B005205A9
:100F3000D34207D305204007C14201D5B04900E0A4
:100F4000B0493046F0BD6B00002A00D001229A184B
:100F50001F23203C1B1B01D5002302E0E54028187D
:100F600071410C0DD7D0012424050919C407CD0700
:100F700040084908E40F28436144002CD5D00024E0
:100F8000401C61419A40D0D1CDE76A05520DD9D1BC
:100F9000C90FC907D5E79C4D4E00002801D0012498
:100FA00000E0002434195F00002A01D0012600E08F
:100FB0000026BE19954FAC420CD8AE420AD8B442B6
:100FC00006D001256D05EC42BCD010461946F0BD97
:100FD0009942FCD000203946F0BDF0B51FB40C4654
:100FE0000F46811A9F412546861A9D4106D201254A
:100FF000ED076F40401ABC4152187B41210D1E0D78
:101000008D1BAC467D4D8D437ED075056D0D7CD01E
:101010000D05AE46AC431B031B0B794D52429D415F
:10102000202366469B1B14D31746F740381800262A
:101030000090744160462F460741E41900989D4096
:101040002818664116D4714671189A4025D5012397
:1010500020E093182A466A415200002B00D0521C0F
:101060001E23203E9B1B002B61DD3541EE17281807
:101070006641E8D5001876415B1C9A4000D3401CBD
:101080004B05F3181524E34010D3002B52D07146C2
:101090007118D30FC01802D3491C05B0F0BD01234D
:1010A000DB079A42F9D140084000F6E701225205D9
:1010B000B21801D1002853D00123CC0ADB02994396
:1010C000891E002A08D1020C03D0020C000410393A
:1010D00002E00246002020390023550B05D1120200
:1010E0000823550B01D152010D23550C01D11201DA
:1010F0001B1DD50C01D192009B1C150D01D1520076
:101100005B1C2025EE1A01E02CE022E00546F540AC
:1011100015439840CA1AE10769181305C918002A2F
:10112000BBDA032040070818C10FC9070FE071465A
:101130006118B2E7F10740080843711071444A0092
:101140000CD001235B059A42A7D2C90FC907002022
:10115000A3E74905490D26D1002001E00028F4D17C
:1011600000219AE7284D6600002801D0012100E007
:10117000002171185F00002A01D0012600E000263E
:10118000BE19224FA94210D8AE420ED8B14208D0A3
:1011900001256D05E94206D01946A80241401046D6
:1011A0007BE79C4201D0214677E70020394674E76F
:1011B00010B50C465C4005D50124E4076340FFF7F9
:1011C0000CFF10BDFFF778FE10BD30B40C465C403C
:1011D00004D50124E407634030BC6DE630BCFCE676
:1011E00070B50124E40761400D465D4002D4FFF76D
:1011F00063FE70BD6340FFF7F0FE70BDFF070000A7
:101200000000F0FF0000F07F0000E0FF0000F87F2A
:101210000346CA02400D10B510430A1504D001243C
:10122000E4072043002A05DB0A4CA21A04D4D0406C
:10123000FF2A00DD002010BD4A00002B01D0012054
:1012400000E00020101801225205D042F2D8C81741
:10125000C04310BD1E0400001F22030C02D10F2248
:10126000000402D0030E03D004E0002001467047C2
:101270000002083A030F01D10001121F830F01D1B0
:101280008000921E002801DB4000521E12055118FA
:101290004205C012411810467047C10FC90700D05F
:1012A0004042012292071143D6E701218907D3E783
:1012B00000487047789C002070477047704770471F
:1012C00038B504460A4600206946C046C046002894
:1012D00005D002462046009900F0A8FA012038BD4A
:1012E00010B5012000F05AFB10BDF8B5C046C0464D
:1012F000054600200C461020C0460646A819A0420C
:101300000DD9324669460020C046C046070001D1CB
:1013100000F044FB0098A04200D00546C419FFF736
:10132000C7FFF61D07460560F008C00046192846AD
:1013300000F008F8B44204D031463868A21B00F02F
:1013400075FAF8BD0021016041608060704710208F
:101350007047FFB504460D4681B0243000902168E7
:10136000880604D51022E0699143216000E0012045
:10137000A84201DD471B00E000270498A1697A1903
:101380001018081AA0612078C00602D42046FFF782
:10139000DFF8002608E003986268A168805D904746
:1013A000206A401C761C206204988642F3DB207879
:1013B000C0060AD52046FFF7CBF806E06268A168B0
:1013C00030209047206A401C206238467F1E00284B
:1013D000F4DC07E000986268A168405D9047206AED
:1013E000401C206228466D1E0028F3DC2046FFF7D3
:1013F000C5F82078000602D5022005B0F0BD012016
:10140000FBE7000001694A1C02610878704700B5DB
:101410008FB0029100210591054901937944039110
:10142000114604906846FFF765F90FB000BD000053
:10143000E5FFFFFF10B54369002B02D0C046C04650
:1014400001E0FFF7ACF8012010BD1278014624310D
:101450000A7000224A700122ECE711680022D24390
:10146000E8E70000084B70B50D467B44FFF7CFFF5F
:101470000446284600F00AF8002802D00020C043A5
:1014800070BD204670BD00001FBA0100C0688021F9
:1014900008407047F8B505460C46C8680521C904E0
:1014A0008843012189050843E060800602D5204673
:1014B00000F086F97149E0680140022903D0204616
:1014C00000F028F9BCE00521012249030140D203C4
:1014D00091420FD1C00306D56168E06A884200D806
:1014E0000846606006E02069E0626060606904F0C0
:1014F000C6FBA061A1680022EEB200290EDAE06806
:1015000083050BD4C943A160092122604903084324
:10151000E0606068411C61600670ACE0E068012139
:1015200049030843E060002020602069002831D191
:10153000606904F0B6FB012527462437ED02002838
:1015400016D0A0898005800F08D0E069FEF7E0FE84
:101550000028206102D0E068284318E001202761BC
:10156000E061E068032109028843012189020DE05E
:10157000E069FEF7CDFE00282061EFD0E068284347
:10158000E0608105890F03D1FF2101310843E0604C
:1015900020696060E2683A4F2569D0051FD561680F
:1015A000E06A884200D80846411B05D022462846FA
:1015B00000F0BAF8002843D1E068010204D5E562E2
:1015C00000206560A06053E0691CE1626160E16930
:1015D000491E3843A160E06030462E70F8BD10020D
:1015E00001D53A4009E06068411C61600670E0681E
:1015F00038430A2EE06006D00022E16A606881422A
:1016000003D90B4602E00122F7E70346A7895B1BDB
:101610007F0504D4E7699F4201DD002A1ED0814284
:1016200000D801460F1A0020E5626560002BA0601B
:1016300009DD22461946284600F076F8002802D037
:101640000020C043F8BD002F08D0A069E5626560A6
:10165000C01BA061E06810210843E060E068000260
:1016600009D56168A069E562491B40186560A06101
:101670000120C043F8BD3046F8BD000082100000D4
:101680000000010010B50146C268900703D0900623
:1016900007D5886A0AE0FEF721FE01210160881E55
:1016A00010BD8B694868C0180B69C01A40310B7AAD
:1016B000002B02D0497A401A10BD1103FCD5002836
:1016C000FADD401E10BD000070B5C468A50713D038
:1016D000650211D4D51FF93D0AD0FF3D6D1E07D01C
:1016E000FF3DFF3D022D07D101462431012305E0D6
:1016F000074E5D1EB54201D3012070BD0161C3617B
:1017000041600F2109028C431443C460002070BD66
:10171000FFFFFF00C1688022114392039143C16023
:101720000021816001607047F7B514460E463348CA
:10173000D5685769054209D03846A16904F000FB15
:10174000002811DB2D48C0430540E5602B4632469A
:101750003846009904F0F7FA4200A1695208B21A1B
:1017600089180028A16104D02046FFF7D3FF00208C
:10177000C043FEBD70B504460569C06A6168884211
:1017800000D80846E1680522D2049143E160C9030C
:1017900014D5A84209D02246411B2846FFF7C4FFB2
:1017A000002802D00020C04370BDE56200206560C3
:1017B000A060E068012109048843E060002070BD5A
:1017C00010B50446C06820218843E060A16AA06982
:1017D00088420ED02046FFF7CDFFE06803210903C1
:1017E000884310210843E060A06AA0612069E0629C
:1017F00060600349E0680840E06010BD100002002E
:10180000BFBFFFFF01468008081A02091018020A2C
:101810001018020C1018C008820012185200891A01
:1018200001E0401C0A390A29FBD2704710B5034673
:10183000406801E003464068002801D08842F9D39F
:101840001868C3188B4206D0CB1CD808C000001DF6
:10185000411A521A0146081D0A60FEF78AFD10BDA2
:1018600010B543485421FFF7E1FA42485421FFF7ED
:10187000DDFA41485421FFF7D9FA40483C493D4B35
:10188000404A01603E4803603B4810605A1C0A65AC
:10189000411C1965012101653C48354A3AA178444B
:1018A000FFF766F8002804D1384878440C3800F077
:1018B000D1F838482F4A36A17844FFF759F8002864
:1018C00004D1344878440C3800F0C4F832482A4A2D
:1018D0002FA17844FFF74CF8002804D12E48784413
:1018E0000C3800F0B7F840232148DC0000212246E4
:1018F000FFF7EAFE002804D0244878445C3800F062
:10190000A9F81C48224640230021FFF7DDFE0028ED
:1019100004D0204878445C3800F09CF816482246F1
:1019200010230021FFF7D0FE002804D01A48784485
:101930005C3800F08FF810BD0F4870B5006D44089A
:101940000B486400FFF788F80A48FFF785F80A4853
:10195000FFF782F809E0206D450820466D00FFF78B
:101960007BF82046FEF705FD2C46002CF3D170BD18
:10197000D09C0020249D0020789D0020002600207F
:1019800004260020082600207200000002E3010067
:1019900077000000EFE20100C6E2010010B500F0A0
:1019A0005FF800F051F810BDF8B5264C4E00069DCA
:1019B000A6420AD8A64201D1002806D15E00A6425E
:1019C00003D8A6420AD1002A08D00D2424042542B7
:1019D00033D02946002000F06BF8F8BD0C461C43BC
:1019E00011D4994207D0C81A02D3EFF30080F8BD92
:1019F000EFF30080F8BD801A02D3EFF30080F8BD4A
:101A0000EFF30080F8BD09242407E5008B4207D0DE
:101A1000581A02D3EFF3008006E0EFF3008007E0EE
:101A2000101A03D3EFF30080A04303E0EFF300802C
:101A3000A043284380F30088F8BD009500F050F8DB
:101A4000F8BD00000000E0FF10B5002801D004F050
:101A500015F910BD10B500F067F8FFF7F5FF10BDE0
:101A600010B5012805D0002103A000F043F80120A3
:101A700010BD09A1F8E7000053494752544D454DA8
:101A80003A204F7574206F662068656170206D651F
:101A90006D6F7279000000003A2048656170206D1A
:101AA000656D6F727920636F727275707465640012
:101AB000C80212D54803400F002804D0C803C04311
:101AC000012188407047EFF30080000100090321E5
:101AD0000907084380F30088704700207047000022
:101AE00010B500200249029A00F038F810BD00003D
:101AF0000000F87F70B505460C460A2000E06D1C1A
:101B000004F03AF9002D06D028780028F7D102E039
:101B1000641C04F031F9002C02D020780028F7D1A1
:101B20000A2004F029F970BD10B5014602A0FFF7A4
:101B3000E1FF012010BD0000534947525452454473
:101B40003A2052656469726563743A2063616E2756
:101B500074206F70656E3A200000000010B50C46CE
:101B60001107090F092904D00A290AD008290CD124
:101B700004E011460820FFF79BFF06E0510606D55A
:101B800001E0510601D50120C007214610BDD10654
:101B900007D501010909CC084907000E00060443D6
:101BA00009E0410F20024907000A0143200E000608
:101BB0001D22D14101430846E7E770B58C1805782E
:101BC000401C6B075B0F01D10378401C2A1106D122
:101BD0000278401C03E00678401C0E70491C5B1E16
:101BE000F9D12B0705D40023521E0DD40B70491CCC
:101BF000FAE70378401CCB1A921C03E01D780D70A5
:101C0000491C5B1C521EF9D5A142D8D3002070BDDF
:101C100080B509F011FC80BC01BC864609F01CBBF4
:101C2000BFB584686D461CC5002200F00FFCBFBD27
:101C30001F21014001228A40000F0C2101401F4852
:101C40000B5893430B50704710B5044621B1012047
:101C5000214605F0B3F828B1204610BC02BC8E46E0
:101C6000FFF7E6BF1F4808F0D7FBC04671460122C8
:101C70000A400021891A5141FFF7E6BF10B57146AD
:101C800001220A400024A11A5141FFF7DDFF20463E
:101C900010BC02BC8E46714672467346F4468EF303
:101CA000008874471F21014001228A40000F0C2147
:101CB000014002480B5813430B5070470402004088
:101CC00010B5044621B10120214605F077F828B16E
:101CD000204610BC02BC8E46FFF7E4BF014808F066
:101CE0009BFBC0464D0B0200714601220A400021B9
:101CF000891A5141FFF7E4BF10B5714601220A402D
:101D00000024A11A5141FFF7DBFF204610BC02BCA2
:101D10008E46714672467346F4468EF300887447C9
:101D2000F0B585B001263204B24D2B6C13432B6401
:101D30002B684A4C019050B1042213432B60224679
:101D40002B6D102423420BD1521CF9D108E0012243
:101D500013432B6023462C6D144201D15B1CFAD136
:101D60003F4A8A183F4C404B9A425DD8434BCB18B0
:101D70003F4D00200390AB4200D3039E404B032015
:101D80009A42074600D33046009002259A4200D37B
:101D90003546A9400398C3430290964D3A46314FC9
:101DA0002BE0901E042827D80492F048B0FBF2F0F4
:101DB0004200022500E06D1CBD421BD22846504364
:101DC000304E8619304CA642F5D8461A0F1A884272
:101DD00000D83E469E42234FEDD20020002E3346CF
:101DE0000395049C0294E6D103460395049A02925B
:101DF000E84D01E0E74D049A521C212AD1D1029E00
:101E0000700222494018009CA103019A1143039BD0
:101E10009A1E0A4302432A64601C7043D349B1FBF3
:101E2000F0F05843400010E00320C0432858FE342F
:101E3000204205D00D480199014329640C4804E073
:101E40000C480199014329640B48044B296D042275
:101E5000114201D15B1CF9D105B0F0BDFF60DBFF81
:101E600000CA91FE02020000000E27070EC2000009
:101E7000006CDC020E4400000090D003009423FDAF
:101E800000366E01002847FA00EA320600FEFFFF26
:101E9000F3490A6802430A607047C046F0B52D480E
:101EA000036802221340846B05210D0400212C429B
:101EB00015D1A103284912D4A50B03262E40274D86
:101EC000AD5D660A1F2737407E1C6E436400244DBB
:101ED0002540244C6C436118B1FBF6F18900224C7B
:101EE0002160856807242C40022C1AD0012C0ED1C9
:101EF00048F200011D4C73B9036813430360236863
:101F00000468944304608022134208D109E0A100D0
:101F100017A2515805E0226880231A4201D047F6E3
:101F2000005180690F220240501CB1FBF0F078494B
:101F3000086017494118174AB1FBF2F1164A1160BF
:101F4000F0BC02BC8E46714672467346F4468EF370
:101F50000088744708020040001BB700D0FE010053
:101F6000FE030000C0C62D0014260020001104400E
:101F7000001BB700008000000000000010270000D8
:101F800000000000006CDC0200000000001BB70035
:101F900020A1070040420F001026002080B500F06D
:101FA00047FF5B48006880BC02BC8E4671467246A3
:101FB0007346F4468EF300887447C046BE480068F6
:101FC0000121014049426948084071467246734602
:101FD000F4468EF300887447B7480068810348F2DE
:101FE00000000840714672467346F4468EF300883E
:101FF0007447C04600020040810ACAB2002162B1A3
:1020000041091F230B409A40000C0C210140C1489C
:102010004058064941581140D94008467146724619
:102020007346F4468EF300887447C0462002004091
:1020300010B501461F48081803280ED8810001A2D8
:1020400051188F4600F006B800F01CB800F01EB81A
:1020500000F020B8184801681FE04A0E07231A4014
:102060000020E2B1080D1F240440A240880E0C217C
:102070000140A948405810494018D94340581040E1
:10208000E0400CE00C480068410806E00A4800689F
:10209000010A02E008480068410A0120084010BC1B
:1020A00002BC8E46714672467346F4468EF3008833
:1020B0007447C046F0FFFF7F1802004080B500F073
:1020C000B7FE134800681349096807220A40D04048
:1020D00080BC02BC8E46714672467346F4468EF34F
:1020E0000088744780B500F0A3FE094800680949DC
:1020F0000968090907220A40D04080BC02BC8E460C
:10210000714672467346F4468EF300887447C046A3
:102110000C2600203402004010B513480168052049
:1021200002040020114215D18803104812D48A0BF2
:10213000032313400E4AD25C4B0A1F241C40631C2D
:10214000534349000B4A0A400B4951430818B0FB5E
:10215000F3F0800010BC02BC8E4671467246734696
:10216000F4468EF30088744740020040001BB7001D
:10217000D0FE0100FE030000C0C62D001448016817
:102180000422914301604C48016880229143016020
:1021900030BF704700020040064909684908012223
:1021A0000A4002600020714672467346F4468EF380
:1021B00000887447080200400548016804220A4369
:1021C00002603D48016880220A43026030BF7047C8
:1021D00010ED00E0F8B5384D2E6D0321C943695864
:1021E00040F200320A401F49884200D95AB11E49C4
:1021F000884203D940F200139A4204D01B49884216
:1022000000D80846014628680427384328606748F4
:102210002A6D10231A4201D1401CF9D128690722E6
:1022200002432A61286A0F22904328622A6D012006
:10223000024205D1C004FFF773FD04462E6D03E092
:102240000020FFF76DFD04460220002100F010F889
:10225000F00602D42868B8432860204601B0F0BDDB
:10226000000200400090D003006CDC0200366E01DA
:10227000F8B5114C266D226804252A4322601022ED
:1022800016404A4B276D174201D15B1CFAD12269D7
:1022900007231A432261226A0F27BA430A432262A4
:1022A000216999430143216100F0C2FD16B92068FC
:1022B000A8432060F8BDC04600020040F0B50023EE
:1022C000DC43830ADDB2124B75B146091F27374044
:1022D000BD406540060C0C2737400E4EF659F618E7
:1022E00037692F4017433761450E07222A406AB1EC
:1022F000050D1F262E40B2406240800E0C24044083
:1023000005480059C45814400C43C450F0BDC046A1
:1023100010020040C0FE0100B0FE010070B514467E
:102320000D46064623B10120314604F047FD38B181
:1023300030462946224670BC08BC9E46FFF7BEBF09
:10234000014808F069F8C0464D0B020010B573460D
:1023500001241C4000231B1B6341019CA64610BCAA
:1023600001B0FFF7DBBFB0B5734601251D40002467
:10237000631B6B41FFF7D2FF2046B0BC02BC8E4608
:10238000714672467346F4468EF300887447000027
:1023900010B5064A064B1C6804400121844202D055
:1023A0000021521CF7D1084610BDC046FF60DBFF7C
:1023B00050020040FEE700000720C10315480068F6
:1023C000884200D17047ED4859220260162202600F
:1023D000882202600268002AF6D00F4A1123136097
:1023E0000E4B53600023D360012313611369002B4C
:1023F000FCD193685B1C0BD191602121D16001213C
:10240000116111690029FCD1F721C9430122425011
:10241000FEE7C04628F0024000C00040000820004F
:10242000F0B500231C460DE00125A5400D4207D064
:1024300015469D4003269E400768B7432F4307601B
:102440009B1C641C102CEFD1F0BDFEE7F0B58BB0E7
:102450000291039008A8093004900020C543119F01
:10246000109E1299019152B90121182E00D30146F4
:1024700007B1014619B1049A144603982AE00020D6
:102480000790049C1BE00692059463190798C1B25B
:1024900016A0425C5442114606E01E705B19300AD9
:1024A0003E060643491E3F0A0029F6D10698801AC7
:1024B00002460598001904460798401C07903146CB
:1024C00039430029DFD1012ADDDA079817300646A3
:1024D0000398049A0299019B490171186155611989
:1024E000521A00F013FE0BB0F0BDC0460101020409
:1024F000EFF30980EFF30B8107B5F0B444464D4686
:1025000056465F46F0B4684619F090F9F0BCA04614
:10251000A946B246BB46F0BC0FBC9E4680F3098874
:1025200081F30B887047000070B51D4616460446BF
:10253000007C00B170BD092904D0002320462A4642
:10254000FFF76EFBA368204631462A4600F0DEFD09
:10255000942020588188744A531A0322022B02DBEC
:10256000491C81800022227470BDC04613460A4671
:102570000221FFF7D9BF13460A460221FFF7D4BF55
:1025800010B5044600F008F80299039A204610BCE2
:1025900008BC9E46FFF7EABFB0B50446007C00B118
:1025A000B0BDDD176A405D40D90F20462B46FFF7CE
:1025B00037FB9420205881885B4A531A0322022B50
:1025C00002DB491C818000222274B0BD10B5044694
:1025D000FFF7E2FF029A039B204610BC02BC8E4626
:1025E000FFF7DABF0621FFF71BBB05210022C0461B
:1025F000C046F0B587B014460546007CF0BB942079
:1026000028582F4694372A461432904209D08279AE
:102610008A4208D1AA6803680229049206D1D01A16
:1026200009E0042000E01020287427E08088CA1EFA
:1026300092B2B0FBF2F06A46002641C2136028460F
:1026400032460393FFF702FFACB105A8294600F01C
:1026500089FDA8680499401A03994018069A824295
:10266000314606D3059911B10E18111A01E0111A5D
:1026700000262660616038680838386007B0F0BD11
:102680001CB50C460146007C80B994200A580B46C4
:1026900014330A209A4209D18A7B012032B9684654
:1026A00000F060FD0098019903C4002002B010BD45
:1026B00070B515460E4604469821FEF7B7FB204636
:1026C00031462A4600F01AFD20461430942160500D
:1026D0000420A07670BD0521C046C04670B5942286
:1026E00082589488104B1D1B03469433012D02DC45
:1026F0000321017470BD641C9480002404748468F8
:102700006525EE430725B4420BD806468C360225D4
:10271000B24206D0154608351D60946000259581AB
:102720009173057470BDC046FEFF000041F20000C9
:10273000C2F2000080F30988EFF3148002210843FD
:1027400080F3148842F25170C0F20000004700008C
:1027500080B50A4859210160162101608821016075
:1027600001680029F6D0DB21C943054A4250002107
:10277000016000F071FBFDF72FFDFEE70001004056
:10278000A55A000004480168082291430160032112
:10279000C943024A4250704710ED00E00000FA05BC
:1027A0000848026808491140EFF30582074B1A42B6
:1027B00002D107A2104607DF01600B480821016023
:1027C00018F0AABB30F00240F3FF0300FF01000045
:1027D0004F6F70732E2E2E204D5043206661756C06
:1027E00074212121000000008CE200E00020C143A0
:1027F0000948016041608160C1600161416181619E
:1028000001620B2105E001228A40436A13434362BF
:10281000491E0829F7D2704700F00240B0B50C46B7
:102820000546480643D50120C043A969085C19281C
:1028300068D8810001A251188F46C04600F039B80F
:1028400000F03EB800F042B800F044B800F046B8DE
:1028500000F048B800F04AB800F029B800F04AB8D3
:1028600000F04CB800F04EB800F01CB800F01AB8F8
:1028700000F018B800F016B800F014B800F012B864
:1028800000F010B800F00EB800F00CB800F00AB874
:1028900000F008B800F006B800F004B800F002B884
:1028A00000F000B82946224600F054F8286020467F
:1028B000B0BD28462146B0BC04BC964618F018BDF1
:1028C0002046B0BC02BC8E4618F019BD284618F050
:1028D000BFFEECE7284618F035FCE8E7284618F07C
:1028E000A1FCE4E7284618F018FDE0E7284618F0B8
:1028F00099FEDCE7284618F0D7FBD8E7284619F000
:1029000043F9D4E70448EFF305810142CFD103A096
:10291000004607DFCBE7C046FF010000556E6B6E37
:102920006F776E20535643206E756D62657220720C
:10293000657175657374656421000000042071463B
:10294000084202D0EFF3098000E070477146FFF7BC
:1029500065FF0047FEB50A3800240F2800D9CAE1F8
:10296000830001A5EB189F4600F01EB800F01FB8C9
:1029700000F020B800F027B800F02BB800F02FB816
:1029800000F033B800F047B800F08EB800F09EB801
:1029900000F0D5B800F0F8B800F02DB900F05EB93D
:1029A00000F075B900F07CB919F0C0FEA2E140F268
:1029B0000014A0E100220846114603B0F0BC04BC9C
:1029C000964619F0A3BE00240846214619F06DFE74
:1029D00091E100240846214619F09CFD8BE100247A
:1029E0000846214619F03BFE85E199B160C919F00E
:1029F0005EFB044608B918F017FF6561002E06DA81
:102A00002069284203D12046083018F03BFE246993
:102A10002C4070E1FEE7002945D00D684C6828463F
:102A200018F0B6FA012801D018F0FEFE302100227D
:102A300002232046019218F099FE08B118F0F4FE26
:102A400019F035FB064608B918F0EEFE306910B9EA
:102A500018F0EAFE3069284201D118F0E5FE029430
:102A60003046294619F07EFB074608B918F0DCFE0F
:102A70001037384618F096FE01460120C007C41CE6
:102A8000002900D137E1143130220298FEF704F911
:102A9000384618F0A5FE0028019C00D12BE13069D2
:102AA000A843306126E1FEE779B111C919F0C2FAF5
:102AB000054608B918F0B8FEA968002900D108E158
:102AC0006868224619F00EFD14E1FEE7B1B321C992
:102AD0000A6802924968019119F0ACFA074608B9F0
:102AE00018F0A2FE7869022801D018F09DFE042D8E
:102AF00001D318F099FEA8003E18706A2436002809
:102B000000D1F8E0002202230298019918F02EFE6D
:102B100008B118F089FE34680198A04200D8044634
:102B2000E8003D18696C02982246FEF7B5F8686C1B
:102B3000001968643068001B3060DCE0FEE711B308
:102B4000C1C919F077FA054608B918F06DFE686931
:102B5000022801D018F068FE042E01D318F064FE9C
:102B6000B0002818416A2430002900D1C3E08F4208
:102B70000C4600D83C46F200AA18536C1B1953644B
:102B8000091B0160B7E0FEE7A1B381C90A680292A0
:102B90004C6819F04FFA064608B918F045FE7069FE
:102BA000022801D018F040FE042F01D318F03CFE9B
:102BB000F8003518A86EB9007118496B081A2E462E
:102BC0006836844201D918F02FFE00220123029FAB
:102BD0003846214618F0CAFD08B118F025FE686E87
:102BE0003168401839462246FEF756F83068001919
:102BF00030607FE0FEE781B321C919F01BFA04467B
:102C0000029008B918F010FE6768002F294602D11B
:102C100018F00AFE2946606903285FD002286DD0AB
:102C2000012858D14D4881425DD04D48814200D1A4
:102C30008EE000294FD1384619F058F8014618B9EE
:102C40000D4618F0F1FD2946226A002A4BD038467D
:102C50000D4619F047FC294645E0FEE7B1B10C6886
:102C6000002C01DC18F0E0FD204619F0F9F90446CB
:102C700008B918F0D9FD2069082202432261616970
:102C800011400834204618F021FD33E0FEE719F02A
:102C90000EFA044608B918F0C7FD206908250FE0B0
:102CA000B1B10D6819F003FA044608B918F0BCFD7B
:102CB000206918F06DF9012801D018F0B5FD2069E0
:102CC000284202D118F0B0FD2069A843206111E02C
:102CD000FEE72C620EE018F0A7FD03E0A16838467D
:102CE00019F086F9002102980C3018F0EFFC20460C
:102CF00019F09DF90024204603B0F0BD0122D00751
:102D0000814208D041B18030814200DB21B918F006
:102D10008BFD002100E0D10720694069022805D120
:102D20000191029884300021342206E0FEE75B180E
:102D3000BC6E5C60121D08312C46A35863B1254659
:102D400003685E58029C67187C6EA642EFD0FEE7CF
:102D50000120C007811CC6E70199C4E7010000807B
:102D600002000080314900200860714672467346B7
:102D7000F4468EF30088744710B5010E094A8B584B
:102D8000FF242406A04301248440A3438B5010BC9D
:102D900001BC86467046714672467346F4468EF311
:102DA000008874470800004010B5044621B1002097
:102DB000214604F003F828B1204610BC02BC8E4620
:102DC00034F08EB9014807F027FBC0464D0B0200D6
:102DD000714601220A400021891A5141FFF7E4BFE0
:102DE00010B5714601220A400024A11A5141FFF793
:102DF000DBFF204610BC02BC8E467146724673460D
:102E0000F4468EF300887447084859210160162162
:102E100001608821016001680029F6D00020714618
:102E200072467346F4468EF30088744700010040F2
:102E300010B534F051F9054CA06034F02DF9044977
:102E40004118044AB1FBF2F103C410BD0C26002066
:102E500020A1070040420F0001480249016070476D
:102E600008ED00E00000000010B5044600201949FC
:102E70008C4214D018498C420DD018498C420CD089
:102E800017498C4207D017498C4206D016498C420C
:102E900018D1184804E0154802E0154800E00C4835
:102EA00034F00EF902280AD140F2001004430E4813
:102EB000844208D110BC01BC864634F005B98000BC
:102EC0000DA1085810BD10BC01BC864634F000B9F5
:102ED0000200805E00000540001105500010054012
:102EE0000011054000100550000105400500405F3D
:102EF0000400005F0300C05E001BB70000800000FC
:102F0000000000000000000000000000102700008A
:102F100000000000001BB7000020EFF30581694AA4
:102F200011420BD0684A1168002907DBC80010184D
:102F30000023DB43436080681060481C7146724682
:102F40007346F4468EF300887447C046B0B55D49B9
:102F5000EFF305820A40411E0020092912D88AB1E8
:102F6000CB00594AD3181C1D5D685DB157480568F0
:102F70008D4201D100250560002020601068986016
:102F800011600120B0BC02BC8E4671467246734689
:102F9000F4468EF3008874470020EFF30581494A18
:102FA00011420FD0484801460C31022204E00023B0
:102FB0000B604A600831521C0B2AF8D10021C9432A
:102FC00001650120714672467346F4468EF300880F
:102FD0007447C0463B49EFF305820A40411E00207A
:102FE000092908D83AB1CA00374B9A18526812B169
:102FF000364801600120714672467346F4468EF3EE
:10300000008874470020C04303490860034A4A60AF
:103010008860C8607047C04680E300E0FCFEFFFFA8
:103020001248022101601F21C943114A13460B4077
:103030004360104BD2180A4003210A4382600022E9
:1030400002600D4A42600D4A8260012202600C4B10
:1030500043600C4B836001600521090741600A4908
:1030600081600721C94342507047C046D8ED00E057
:1030700000700300FF0F000000800310E1FF071045
:1030800000000130E17F0130E1FFFF5F0D49EFF308
:1030900005820A40411E002009290CD85AB1CA00F5
:1030A000094B9A18526832B1084A13688B4202D110
:1030B000002010600120714672467346F4468EF37C
:1030C00000887447FF010000309E0020C02B0020C4
:1030D000F8B51E460D460446D31A00200146B242FA
:1030E00009D3079F9F4206D80699A8193A46FDF7CB
:1030F000D3FDB819294621606060F8BD10B50023E2
:10310000204C848183730EC010BDC046F8B51F46A5
:1031100015460E460446807B00B1F8BDA0891949CA
:10312000884208D16168A068814204D3091AA94283
:1031300001D3B84202D20120A073F8BDC21B23689C
:10314000D91948191AB143B1FDF70AFE236823B112
:10315000D81931462A46FDF703FEA0684019A06041
:10316000F8BDC0468A7B4AB98A89064B9A4203D188
:103170000A688968026003E001228A730021016005
:10318000416070470F0B0000014840687047C0461F
:10319000B09E0020F0B50025059E0F493F24B709D9
:1031A00026408E5D46556D1C002F3E46F6D12326E7
:1031B00046556D1C960922408A5CEFB2C2559A06AC
:1031C00032439B0916461E436D1C002EF2D1E9B214
:1031D00000224254F0BDC046F8F501001B494118D9
:1031E000022917D31A494118022917D3E449884202
:1031F00018D01849884219D01749884219D0174960
:1032000088421AD000B3164988421AD19720C04389
:10321000133070479720C043801D70479720C043EC
:10322000C01C70479720C043113070479720C0439F
:1032300070479720C0430C3070479720C0430A3036
:1032400070479720C04314307047C046E5FE007FAA
:10325000BBFE007F0201FF800701FF800B01FF80A2
:103260001201FF80B0B50C464542FDF737F8056006
:10327000A000134900220A50B0BDC046B0B50F48A7
:1032800002F04AFA0E480C300021CC43032503E03B
:10329000016859B1001D6D1C0F2DF9D9FDF71EF8FD
:1032A00018210160054802F037FA04E00460034881
:1032B00002F032FA2C462046B0BDC046989F00204E
:1032C000802B0020B0B588B00C46014601A8012330
:1032D000838103750291084908310191002303930A
:1032E0000649059107A96D4629601146224600F05E
:1032F000E2FD079808B0B0BD3CFB010038F60100C4
:10330000E0B5FFF741FF07490860012101910091F5
:1033100028B105A16A46084B16F056FF8CBD074838
:1033200007F07AF8A89F00205053415F4954535F3B
:1033300056455253494F4E00F5AF00000A090200AE
:10334000F0B587B004462820205C26462C3621465E
:103350002831069108B900203060012730463946EF
:1033600003F00EFE0025012869D10597271D384678
:1033700000F058FE054620B10121304603F0ECFD77
:103380005DE02546183527CD801804904D4100207A
:103390000090401B68410190384602F005FC039004
:1033A0000297384602F004FC0399401804998142C0
:1033B000059800D9009805B10198254618352034A4
:1033C00078B12F6868680590029802F0F1FB01213E
:1033D00000228742084600D21046059A02B10846EC
:1033E00028B90121304603F0B7FD544D27E003CD45
:1033F0000143083D0029029E05D1304602F0D8FB6A
:10340000002103C5083D03CC0143083C99B930466F
:1034100002F0CAFB296832460026471A304670413E
:103420006968401E35468D41104602F0C1FB3818D0
:1034300020607541656001200699087000252846C6
:1034400007B0F0BDFEB515460C4606462820305C98
:10345000B0B10998089F3168C96B6A46176050601F
:1034600030462A46884758B1B0694219301D214676
:103470003B4603B0049CA646F0BC01B000F0F2BD90
:103480002E4803B0F0BDC0467CB515460446282042
:10349000205CA0B10798069E2168496C6A461660B8
:1034A000506020462A46884748B1A0694119201D2E
:1034B000324602B070BC08BC9E4600F0F1BD1F4809
:1034C00002B070BDB0B504462820215C20462C30E7
:1034D0002546283559B1012103F03EFD48B90020A9
:1034E0002870201DB0BC02BC8E4600F02FBE00210B
:1034F00001600020B0BD0000FEB515460C46064632
:103500002820305CB0B10998089F3168096C6A4680
:103510001760506030462A46884758B1B069421952
:10352000301D21463B4603B0049CA646F0BC01B0CA
:1035300000F02ABE014803B0F0BDC0465FF0FFFFB7
:103540007CB515460E460446194808302060201DFB
:1035500000F0AAFE282000212154A661E161256225
:103560006162E162701C03D015B1204602B070BDEB
:1035700000216846016002480A460B4607F030FF0A
:103580000101FF8080B500F005F880BC02BC8E46CA
:1035900002F014BBB0B5044605480830254601C505
:1035A0002046FFF78FFF284600F07FFE2046B0BD83
:1035B00038FA010000200870012070471D20704774
:1035C0001520C04370470020704710467047012007
:1035D0007047FCF7CEBE1520C04370471820C24389
:1035E000002001B9104670471520C043704701689C
:1035F000896A08470020704701680B690021012291
:10360000184701688969084703681B6918477047AC
:1036100001680B6900210A4618471520C04370470E
:1036200000207047002070477047000070B50546C5
:1036300000240F2819DCA80015490C580E18022D7B
:1036400013DC601C11D1284600F00CFC044658B96C
:10365000284600F009FC044630B90E4C2079BFF32F
:103660005F8F0125284202D03460204670BD094C8E
:10367000201D02F0C9FA0028F6D007480830054C92
:1036800020602079FC21014029432171ECE7C046EC
:10369000802B0020909F00208CFA0100FEB504468C
:1036A0003430012103F06CFC01460020012948D18F
:1036B0006068016889688847002842D160680168AD
:1036C000496A88472061616160680168896A884742
:1036D000A060E16060680168896B884705460E4616
:1036E000A061E1612246083227461037E06A78B9C6
:1036F00000200190C14310680291431A591E8B416A
:10370000516801B1019B03B9029802F059FAE062D5
:10371000206B70B90022D14338680291431A591EB8
:103720008B41796801B1134603B9029802F048FA57
:103730002063282100206054382101226254256230
:10374000666203B0F0BD0000F0B591B016460C9172
:1037500004463820205C00284FD0179F169D6068D3
:103760000168C96B6A4615600D97576032461F465F
:103770008847002808940E9541D00F96A9190D9BF3
:103780003E467B41206A274601240025814222468D
:1037900000D92A46796A8B4200D92C468B4200D048
:1037A0002246089C234620330B93002A37460F9E5F
:1037B0000D9A15D1A368E26818184A410121002327
:1037C000B042084600D21846BA4200D21946BA4260
:1037D00000D0084621460831029100280D9A15D1E3
:1037E000606801684C6969460E9B0B604A600C99E1
:1037F00032463B46A04711B0F0BDE34CFDE0204609
:1038000008300290204620300B900D9A109710340B
:1038100009940E99EBE00E910D920B98006801242B
:1038200000230F96B042224600D91A460B994E68E3
:1038300010998E4200D91C468E4200D02246E2B931
:1038400000220F9BC71A1346534101240E983D4690
:103850008742204600D310465B1E8E410D998E4252
:1038600000D314468E4200D0204600282A4600D1BC
:103870000E46002840D10E9A3EE0029A90CA2318C4
:103880007E41012000220F9D9D42034600D2134637
:10389000B14200D21046B14200D00346002B0E9A2E
:1038A0000D9E29D10F9E304622463B46FCF7C0FDB7
:1038B00000200A92A51A01464141491E9F410D9BD5
:1038C00001249F42224600D302460E998D4200D326
:1038D00004469F4200D0144604B90E9D0898C06A61
:1038E0000A9941180C982A46FDF7D6F9002C0D9A32
:1038F00000D117460E996EE0099805680120002155
:103900000A92AA42044600D30C46099A5768BE425E
:1039100000D30846BE4200D004460F9810992A46AC
:103920003B46FCF785FDD4B910461843B8B90A9C4C
:10393000204631462A463B46FCF77AFD0898406807
:1039400001684969079100276946A51AA0C10C9929
:103950000F9E3246109B079CA047044638E008980B
:10396000016B0691406804900168486905906946BA
:10397000A0C100210792AD1A0C464C4101200A9AC1
:103980009542024600D30A46641E9F41B74200D3C7
:103990000846B74200D00246039202B90A9D0F9A28
:1039A0000798121A4941491E109C9C410498069997
:1039B0002346059CA04704460898006B07994118C8
:1039C0000C982A46FDF768F9039800B937460F9E10
:1039D0000D9A0E998CB9AE1910987841109000206C
:1039E000491B4041401EBA410C9840190C900846B2
:1039F00010430024002800D00DE7204611B0F0BD90
:103A000010B504463820205C20B1204600F094F820
:103A100010B110BD5C4810BD60680168096910BC38
:103A200004BC96460847C046F0B587B03821415CD3
:103A3000D1B3016A0124002703919142214600D3AA
:103A40003946456A9D4200D33C460D9F0C9E9D42DF
:103A500000D0214606920496B21805973C465C4178
:103A600007462037A1B9012100260296039E9642FF
:103A70000E4600D8029EA54200D80299A54200D069
:103A80000E462EB98169C26906C728210022425418
:103A900040680168096A6A46049C1460059C546089
:103AA000069A884707B0F0BDD94807B0F0BDC046B8
:103AB000F0B587B03821415CD1B3016A01240027F9
:103AC00003919142214600D33946456A9D4200D375
:103AD0003C460D9F0C9E9D4200D0214606920496C6
:103AE000B21805973C465C4107462037A1B9012131
:103AF00000260296039E96420E4600D8029EA542DC
:103B000000D80299A54200D00E462EB98169C2693B
:103B100006C728210022425440680168C9696A46E4
:103B2000049C1460059C5460069A884707B0F0BD59
:103B3000B74807B0F0BDC046F0B585B004463820A0
:103B4000205CE8B12820215C274628370020C1B13D
:103B5000206A0390606A0490E36A221D07CA06681F
:103B6000B6696D4606C51946039A049BB0472146BF
:103B7000203130B9A069E26905C10020387000E049
:103B8000A34805B0F0BDC0465FF0FFFF70B5044626
:103B90003820205C2546383528B1204634300121B4
:103BA00003F0DAF908B1002070BDE06A02F004F811
:103BB0000026E662206B01F0FFFF26632E7060682E
:103BC0000168C96870BC04BC96460847F0B593B05C
:103BD0001E4614460F9105463820285C002800D167
:103BE00012E1AA68EB6820463146FCF721FC274623
:103BF000A41A286A696A6040084300210391C943F6
:103C00000591294620310A9129460831099148B188
:103C10002846FFF791FF002800D0F6E000200A991F
:103C20000C6048601196199B189A28461830049029
:103C30000795283508953E46DFE012920E930999C4
:103C40000CC900240A9F7C603046119D29461092C1
:103C50000D93FCF7EDFBB11A059801403960069110
:103C60000B96711A20466041401E2E46A64108461A
:103C7000304300280C911FD01098401A234663410E
:103C8000012212998142114600D321465B1E0D9DEF
:103C90002B46B3410E9F9F4200D322469F423C4693
:103CA00000D011460029274600D11F46002912994D
:103CB00000D10146109B1FE00123002212981099A9
:103CC0008842194600D311460E9C0D9DAC4200D38C
:103CD0001346AC4200D01946002901462746109BE6
:103CE0000AD121461A462B46FCF7A2FB109B1298DC
:103CF000811A059801400027012000220D91994268
:103D0000014600D21146AF4200D21046AF4200D069
:103D10000146002910971DD10898007858B90798D6
:103D2000C16A4068026854696A4628C20023069A3C
:103D3000A047002869D1079CE06A0C9FC0190F9921
:103D40000D9D2A46FCF7A8FF3946099888C8E06A05
:103D5000069004E00F9806902F460D9D0C99681868
:103D6000109C664131461A461E463B46FCF760FBF6
:103D700013430120002B119B129A2ED10120002207
:103D8000B5420146334600D311463D46109CBC4225
:103D9000079E00D31046AC4200D001461D4601B933
:103DA000109F0A980CC870680668B4696E46776000
:103DB00001B90D9D35600699A04730BB0798406852
:103DC00001680969884700BB049903C90A9A03C2BC
:103DD0000020119B129A109C0D9D089908700B9E53
:103DE000AE19634111930020521B4041401E0E98B2
:103DF000A04103460F9840190F901146194300291E
:103E000000D01AE7039800E0014813B0F0BDC046A7
:103E10005FF0FFFF28230022C2543823C2540262FD
:103E20004262C262026342630D4B08330360416029
:103E30008260C260026142617047C04680B500F096
:103E400005F880BC02BC8E4601F0B8BE10B5044631
:103E50000348083020602046FFF798FE204610BD3A
:103E6000E8FA0100002070470020704710B5047D7B
:103E7000022C07D0012C0BD1019CA64610BC01B02E
:103E800001F020BE019CA64610BC01B001F04EBE60
:103E90000020C04310BDB0B50C460546096801F0CE
:103EA000FEFDA9684140216028688168284688474E
:103EB0000020B0BD70477CB505464068069C206078
:103EC000684604602846FFF7D1FF064620B12868FF
:103ED00081682846884708E028462146FFF7DBFF2F
:103EE000002610B1002121600646304602B070BDA8
:103EF00001F064BE7047007B70470000F8B50E46C5
:103F00000446194D2846083001F006FC0DE0AF6864
:103F100057B13846FCF74EFEB04205D1384621462F
:103F20003246FCF7F3FD88B12D1D2D68002DEED132
:103F3000072E05D10DA007222146FCF7E7FD50B161
:103F40000948083001F0E8FB00250AE0064808307F
:103F500001F0E2FB05E0044C2046083001F0DCFBF8
:103F60006568284601B0F0BD009F00206465666169
:103F7000756C740010B5044600F008F80146002086
:103F800019B16168081F01B9084610BD80B54168C4
:103F9000002031B10846FFF7AEFF411E0020401A55
:103FA000484180BD10B5044600F00DF801460020E0
:103FB00019B16168081F01B9084610BD41680120A8
:103FC00001B90846704780B54168002031B1084604
:103FD000FFF791FF01460020401A484180BD00686C
:103FE0007047000070B50E46044600250560456028
:103FF0000BA13046FCF766FD301802E02F2A06D0F0
:104000006D1C41192160425D002AF7D101E0491C75
:1040100021602946FFF772FF6060204670BDC046F0
:104020002F00000070B504469E4D284601F074FB39
:1040300007F02EFA07F03EFA204633F025F8064640
:1040400007F05EFA07F048FA204633F00DF801F069
:10405000B7FDE060284601F05FFB0020C04306B9D1
:10406000304670BDF8B51D4616460F4604468D48CD
:1040700001F052FB07F00CFA07F01CFA204631461B
:104080003A462B4606F056FB044607F039FA07F08D
:1040900023FA844801F040FB204601B0F0BDC04641
:1040A000FEB516460D46074650180290384632F0C7
:1040B000E3FF0446384632F0E3FF0299001900227C
:1040C000D243814201D917463CE000923C460AD2D5
:1040D00020460F4632F0CCFFB7FBF0F14143781A8F
:1040E00001D0009F2EE06F4801F016FB002724E06E
:1040F0002FBB029501960027009E761C0F2E14D828
:1041000007F0C6F907F0D6F925462046029932F0A5
:104110009FFF04460020C74304B9274607F0F0F983
:1041200007F0DAF9002C2C46E7D12046029D2946FB
:1041300032F09EFF4519019E361A002ED8D15948FB
:1041400001F0EAFA384603B0F0BDC04670B5054646
:10415000544C204601F0E0FA07F09AF907F0AAF96A
:10416000284632F079FF064607F0CAF907F0B4F99D
:10417000E86801F021FD204601F0CEFA0020C0439E
:1041800006B9304670BDC046F0B589B01F4614462A
:104190000E46054632F068FFB4FBF0F10290414351
:1041A0000794641A284632F067FF0690089528465F
:1041B00032F066FF0021C9430191059636B12CB952
:1041C00006994018079D7919814201D9019E65E041
:1041D000344801F0A1FA00265BE0002E5BD1089E76
:1041E0003046294632F044FFB5FBF0F14143691AED
:1041F000401A87423C4600D304460320059A1146E4
:10420000814391420298039709D1844207D3B4FBBA
:10421000F0F14143049106910598079016E0A04201
:10422000024600D32246F06805990492FCF734FD5B
:104230000298844207D2049A811AF0688018FF22FB
:10424000FCF7C4FD0298F168079106900026019CD6
:10425000641C0F2C16D807F01BF907F02BF90898EF
:104260002F462946079A069B32F012FF054600208A
:10427000C64305B92E4607F043F907F02DF9002D86
:104280003D46E5D105980499401805904D19039FC6
:104290007F1A002FA1D1034801F03EFA304609B041
:1042A000F0BDC046B09F002070477047BCB5026AA1
:1042B000436A01246D462C609B18002200F09CFE8E
:1042C00002B0B0BD7CB5C9004118896B8069046833
:1042D000A56900246E4618C68A1806992346A84781
:1042E00000B1014802B070BD1C01FF80F0B58DB077
:1042F00006930F46044607A869460860182320461F
:104300003946059201F0DAF850BB07A88089A16C04
:104310000B9A00236D462B601725B5FBF1F380182F
:10432000401EB0FBF1F01818861C4E430120C01B44
:10433000C1B220460491069A334600F05DFE78B97A
:10434000A06C07A96A461160B5FBF0F1491C414316
:104350008DB220460499069A2B46FFF7B3FF08B1A9
:104360000DB0F0BD039712980290761B06982F1897
:1043700005982A1823E0E06C6B4618604020402E18
:104380000596354600D30546134805402046264687
:1043900006922B4601F092F80028E1D1F06C6946B4
:1043A00008603446304604993A462B46FFF78AFFA8
:1043B0000028D5D1059E761BEF19069AAA18002E63
:1043C0000399D8D1A06C791EB1FBF0F1491C41438F
:1043D000029801600020C3E7FFFF0000F0B593B032
:1043E0000E931446064687681046FCF7E3FB014629
:1043F0000025E8430D942246FEF764FF199B1860E0
:10440000189C0C9327E0280139188A680E990A60D5
:104410003858196881421CD321D82C20315C0FA850
:104420006B46986211A8586210A818620020D861E3
:1044300001259D6158611861D86012AD9D6058607A
:10444000186030460D9B00F00FF80C9B0549884220
:1044500006D12068451C256030698542D3D30148C8
:1044600013B0F0BD0701FF80F0B599B01293154667
:104470000C460746289E326013A869460860182338
:104480003846214601F01AF8002854D111961094AC
:10449000129E784A78481399814213D1279813A91C
:1044A0008989BA6C179C159B03601720B0FBF2F04A
:1044B000401C50430A464119501E80B27E2803D941
:1044C0006C4838E0104636E0A018A042694B31D362
:1044D00030D30D920D183A467A6B95422AD20E903F
:1044E0000F91219DD81CAC4225D3239A20991F9867
:1044F000641B844200D304461E98029005910C94DC
:104500000C60002A14460D9A04D0581E029909B96D
:104510000C9981B9269804900020C143002D039482
:104520000A910AD050190F9C041900220C980B957F
:1045300009910DE0184619B0F0BD0846142113AAE0
:10454000FEF7C0FE0D9A099000200B900F9C0E986C
:1045500025990791249906912299089104990A9B1B
:104560000B6000210A913146119E0C970D9569E070
:10457000002A12910E900F9406D0089B5BB1002088
:1045800088540D4617461BE00B98A842059B07D29E
:104590002F1A40200FE04020402A17460DD20DE090
:1045A000039830B11F680D9838180B998142029D0D
:1045B00006D340200E9F402F00D307460C98C56CB1
:1045C0001646684605600C9810990F9A3B4600F015
:1045D00075FF0028AFD10D9828B9099839462A46A9
:1045E000FEF770FE0990324606B30021069848B1E6
:1045F000129829463A46FCF789FA1E4B591D00B914
:10460000014632460A91079838B1049C2068394621
:104610002A46FEF757FE32462060D21B0F9C0D9DA6
:10462000601902B120461299C91907E00B98381891
:104630000B9000220A920F9812990D9DC4190E98A2
:10464000C01B119E002893D12146002D0C9C35469D
:10465000084B05D11898099A8242184600D06AE79B
:10466000A06C491EB1FBF0F1491C414329600A9836
:1046700061E7C0460201FF808366685470B5144646
:10468000856C1720B0FBF5F60846FCF793FA201866
:10469000401EB0FBF5F03018801C684370BD000070
:1046A000F8B517460D460646806DB54C884232D1A6
:1046B00007B983BB286870B3A86AC018241D29698C
:1046C000884228D8686919463A461C46FEF7FAFD22
:1046D00068612C20315C2A6A6846076027463046AC
:1046E0002346FFF7EFFD0446284620304CB1306AE0
:1046F000A969EA694140114369B1304600F09AFA6C
:1047000009E001680024C919016041686141416004
:10471000A86AC019A862204601B0F0BDF0B593B0F8
:104720000C460546806D964E884201D037462DE0F6
:1047300020680028FAD02069A16A814219D1A868AE
:104740000D902C200E90295CA26968460460182305
:104750002846FFF7B7FD07462246183260B90C928B
:10476000A8690168096988471B3690B137460C9AD9
:1047700002E0371D22461832286A06CA414011431A
:1047800011B1284600F056FA00202060384613B0D8
:10479000F0BD286A0C990A68496850400843002710
:1047A0000028F1D00E98295C0FA86E46B06210A8C0
:1047B000706211A830620023F361B36173613361E9
:1047C000F36012A8B060D843706033602846FFF7EA
:1047D0004BFE07460028CAD1A068002823DB3420FE
:1047E000205C00280D9E14D02869E26A90420AD904
:1047F000801A030110013118084610301A46FCF7E0
:104800008CFAE26A2869401C28610121284600F0E0
:10481000DFFBE06A216B0001315030180C9A06CAA8
:104820008160C26014E02869401E2861E26A9042FB
:104830000D9909D9801A0301100108180146103199
:104840001A46FCF76AFAE26A0021284600F0C0FB2B
:10485000A86C216A491EB1FBF0F1491C4143E96192
:10486000002791E7F0B593B00D930C920E460746E2
:104870002820395CEE48C01D002947D0B8680E904A
:10488000EB4940E072683869824208463ED22C20EB
:10489000395C10010E9A101882683B6D0FA86C46A7
:1048A000A06210A8606211A820620020E061A061EF
:1048B000606101252561E06012ADA5606060206047
:1048C0003846FFF7D1FD08BB3D6DB46854B12046B2
:1048D000FCF770F9024628462146FCF78DF90028BE
:1048E000D3490DD12846FCF765F90146D048801E12
:1048F0000D9A91420AD20C982946FCF735F900210D
:104900007068401C706000200029BBD113B0F0BD5E
:10491000F8B50E4604462820235C194908460D3098
:104920005BB316B35C34002503E0206838B1241D66
:104930006D1C0F2DF9D91F31102D08461DD00C20EC
:10494000174601F04DF939460746306079B10878CD
:1049500068B108460E46FCF72DF9401C01F030F90D
:10496000B8603146FCF700F903E0084605E0002096
:10497000B86000203D607860276001B0F0BDC0469F
:104980000101FF80B0B50C4605462820285C58B1CF
:10499000A06801F011F92068800028180025C5657D
:1049A000204601F00BF900E0014D2846B0BDC0469D
:1049B0000E01FF80F0B593B0044680681290002687
:1049C00011962661236A01200B906BE02C20215C5C
:1049D000236D11A86A4690620EA850620FA810625B
:1049E0000B9ED6610020906150611661D0600DAEC3
:1049F00096605060106020462A46FFF735FD064657
:104A0000002855D1226D0FA8694648600CA808609F
:104A1000002610AB20463146FFF7E0FC074610B1F8
:104A20008348874243D10E98119B81498F421CD104
:104A3000002837DB1F46E1682069884204D312A9A9
:104A4000204600F082F920690C9E801B0201300193
:104A50001299091808461030FCF75FF92069401CCC
:104A60002061304600263B4603E000280ADB0C9814
:104A70003E46000112990F9A0A50081800218560DD
:104A8000C1600FE02069401E20610C99401A0201AC
:104A9000080112990818014610311D46FCF73DF92E
:104AA0002B463E461D46E06983428FD300E03E46DA
:104AB0001198E061304613B0F0BDC046F0B587B044
:104AC000044640690168896B884705460F46002601
:104AD000A663E6632664666460690168096B324612
:104AE0003346884703900291542006942654780058
:104AF000E90F0143F80F084300B13746F9070122D7
:104B00000592D20700B11546019568080843049044
:104B10007D08069C5434374613E0069840690168C6
:104B2000096B00233A468847029A51400246039B8C
:104B30005A400A43012102B9114622780A432270E1
:104B40003F180498B842059800D93046711B694156
:104B500005B108460028E0D000200199C91B069A3B
:104B60009063D7631764516407B0F0BD7CB5054608
:104B7000C8002818806B8418A8690168096B002692
:104B8000224633468847A9690A68D5696A4641C200
:104B9000084622463346A84700B1244802B070BDFB
:104BA00000F014B9F0B587B016460D4604461F4F05
:104BB00038461738402A37D84022002120460B4675
:104BC00000F004F9BD4988422DD060B318498842ED
:104BD0002AD12C200490215C6846056000222046E2
:104BE00003923346FFF76EFBF0B905A901914E80A1
:104BF0000820029008800398C04331462A46FEF7F9
:104C000061FB06900498215C6846019A026040228C
:104C10002046029BFFF756FB30B9A069016809697D
:104C2000884700B90746384607B0F0BD1C01FF8031
:104C30000701FF80F0B589B0044686682C27C05D67
:104C4000216A636A00226D462A605B180125281AD2
:104C5000C1B2204600F0D0F908B109B0F0BD059707
:104C60004027002120463A460B4600F0AFF80028C6
:104C70002A46069536D0206A616A0D180795089570
:104C80000836002711E0615C326807A86B4618609F
:104C900020462B46FFF72AFB002851D10020356023
:104CA000706010367F1C079D069A2069874205991F
:104CB000E9D30895E561E06A101AE062208E401C95
:104CC0002086164682B20D46002108AB204600F031
:104CD00065F80028C1D1605D301AC1B22046FFF7E7
:104CE000E5FABAE7029700250895276A23E00495BC
:104CF0002C20215CE06C6A461060402F039700D3A3
:104D00001F462046049D2A463B4600F0D7FBC8B903
:104D10002C20205CE16C6A4611600699081AC1B229
:104D200020462A463B46FFF7CDFA58B90398C01BE8
:104D3000ED190746069A002F029BD8D108959AE7ED
:104D400008958AE70499089187E7FEB50291054620
:104D5000C668701C10220027019039463B46FBF7BD
:104D60004FFB012201B90A46F94302B90146AF6877
:104D7000084600F025FF044632013946FBF792FA57
:104D8000AC600198E860384600F016FF029909B15E
:104D9000A8680860002003B0F0BD0000BFB5114650
:104DA00002AA01245480118000210391046A456AFB
:104DB0002C191C6003685C696B4619600249082362
:104DC000A04704B0B0BDC046480B0200F0B589B0A2
:104DD000059306920D46044680690168496B884731
:104DE00006462C200190215C07A86A4610604027E7
:104DF0000823029420463A4600F060FB08B109B04F
:104E0000F0BD059C0020072810D807A9095C401CAC
:104E1000F2B29142F7D007A8438804B12360274833
:104E2000C01C002406998B42E9D805E0069840286A
:104E300000D3384601240346002D029800D1C56CEA
:104E400000210691C94305952AE003910199415C2F
:104E50006A4615604022402B04931F4600D3174634
:104E6000069A3B4600F02AFB0028C8D123460020C2
:104E7000B84206D2295C401CF2B200249142F7D01D
:104E800000E01C46069D0598421903983946FEF736
:104E900019FA0146049BDB1BED190695059D029846
:104EA000002BD2D10B460549481DE207A7D1089A2D
:104EB00000209342A3D00846A1E7C0460201FF802C
:104EC000F0B593B002931546074611A86A461060E4
:104ED00012AB384604912A4600F036F8B8690168EA
:104EE000496B8847C2B205A818210391FBF777FFE9
:104EF000119E01E0361B6519CEB10BA8694608600A
:104F0000182E344600D3039C384604992A4623467B
:104F100000F0D4FA88B90BA805A92246FBF7F6FDE4
:104F20000028E7D0119600200299087007E011963A
:104F3000012002990870002001E01196014813B089
:104F4000F0BDC0461B01FF80FEB51E460546C800E9
:104F50002818806B84185420285C089F60B3019740
:104F6000029600273E4606E0A8690168096B002307
:104F7000324688473618A8690168096B32463B46B5
:104F800088478319794101200029024600D10A4649
:104F9000A34200D8384601B110460028E4D0A01B37
:104FA000029C2060A8690168096B0023324688478B
:104FB0002168401A019F09E0A8690168C96A884709
:104FC000B4FBF0F14143611A3160401A3860FEBD14
:104FD000B0B50023DC43012301B923465C2107E07F
:104FE000445824B16568954201D9ED186560091DE2
:104FF0009C29F5D1B0BD0000F0B587B01E4615461E
:10500000039102900C98019022E006A8694608607E
:1050100005AB029803992A46FFF796FF069CB44217
:1050200000D33446059F0FB1019878B104AB0298C4
:1050300003992A46FFF744FF70B904A8007828B9FD
:10504000EA1B02980399FFF791FD28B9361B6519F1
:105050000020002ED9D100E0014807B0F0BDC046C5
:105060001C01FF80F0B595B01E4615460C4607465C
:1050700000F0E8FC80B30E9510A8694648600FA8C0
:105080000860002513AB384629462246FFF7A6F9EB
:1050900018BB1B9A1A980D902C21795C13980C90D0
:1050A00012AB6846836211AB436210AB0362C56109
:1050B0008561012343610561C26014AA8260466074
:1050C0000E9A026038460C9A2346FFF7CDF90D9AE6
:1050D0001AB11499116000E0F74815B0F0BDC04650
:1050E000FEB51D4616460A46044616B90DB1F248ED
:1050F00016E0089821684F6A6946086002A92046B0
:105100002B46B84760B92068876A02992046324624
:105110002B46B84720B92068C26A029920469047BA
:1051200003B0F0BDF0B59BB007462820385C3C4684
:105130002834002620B10120207030461BB0F0BD7D
:105140000C941020F86040F2001000F039FDB860B7
:1051500000263E61F0437863402000F041FD79690C
:10516000FEF758FEB8610168896888477869016868
:10517000496B8847401C00D109E178690168896A58
:1051800088470546B8644024204600F019FDF864BD
:10519000802000F015FD38650F973827384600F05D
:1051A0001FFD0F99886539460F9FFBF73DFE384676
:1051B0005C302146FBF73AFE4720B0FBF5F0401C7F
:1051C000684338627849082238460D92FFF756FA4C
:1051D00078623846FFF772FC15AC3C2101230E9330
:1051E0004FE01AA800258555119425801091785814
:1051F000796B884200D3084678633A6A19A86946F1
:10520000886218A8486217A80862CD618B614B615B
:105210000D61CD6016A888600D98486013A80860DD
:105220003C461296F7B2204639461E465E4BFFF7C3
:105230001BF95E4988420ED0002800D097E01398F1
:10524000119C20801AA90222129E8A550F9F38862F
:10525000FE620E9B11E0226A636A68460660204681
:105260003946FFF7C9FE002800D087E01AA80121BF
:10527000129E81550F9F0E9B119C10990831A41C02
:10528000761C022EADD31AA8007801281CD0022863
:105290000C9C2BD11AA84078022827D115A8418848
:1052A000159A521E93B200228B420E990B4600D3E0
:1052B0001346FB625A00104300883886594038462E
:1052C000FEF7F4FF90B152E01AA8407801280C9C38
:1052D0000CD101223A860026FE623B461C3338463A
:1052E0003146FFF75BFD002841D124E7786BF86178
:1052F0003846FFF75FFB06462C49884205D0BEB111
:10530000002168460160304634E0FA69786B8242D9
:105310000E460DD22C20395C13AB3846FFF7D0FD7A
:10532000D8BB13A8017800200029204E00D00646E3
:1053300040220025384629462B46FFF747FD1B49EA
:105340008E4202D0884200D0F5E63846FFF772FC64
:1053500068B9B86901680969884700282E4613486A
:1053600000D1E8E600216A4611601A3002E000210F
:105370006A4611600A460B4606F032F86846056038
:105380000A48193029462A462B4606F029F80021FA
:10539000684601600548401EECE700216846016050
:1053A00002481930E6E7C046480B02000201FF80C0
:1053B000B0B504462820205C50B10025E9B201298F
:1053C00008D82046FEF772FF6D1C0028F6D0B0BD4D
:1053D0000848B0BD00212161E16201222286206AD5
:1053E000E06123461C332046039CA646B0BC01B0B6
:1053F000FFF7D4BC0E01FF8070B504462820205C66
:105400002546283578B1A0690168C9688847A06930
:1054100010B1016849688847A068044EB047E06C45
:10542000B047206DB0470020287070BDB95B000008
:105430001CB5026854690122D2076B461A6000222B
:105440001346A04702B010BDF0B591B014460D460A
:10545000064600F0F7FA58B30DA8694648600CA854
:105460000860002110AB30462A46FEF7B7FF00BBAC
:105470002C20315C109A0FA86B4698620EA85862D7
:105480000DA818620020D861986158611861D86031
:105490000BAF9F60C74381C330462B46FEF7E4FF46
:1054A0003CB130B90E980B9921606060002000E09B
:1054B0007C4811B0F0BDC0460101FF807CB5C90039
:1054C0004118896B80690468656900246E4618C6B6
:1054D0008A1806992346A84700B1014802B070BD5A
:1054E0001B01FF80F0B589B01D4616460F460446E5
:1054F000114600F0A7FA6B4B0E9A6B490A4254D141
:10550000002852D004920595A56D3D60674930464C
:10551000FBF78EFC6649002849D02868884206D1EE
:105520002046FFF787FB0746002800D086E020468C
:105530003146059AFFF7A2F8E16903900818616BFC
:10554000884209D92046FFF775FB0746002875D128
:10555000E06903994018616B524F0A3788426DD851
:1055600007A86946486006A80860002108AB2046E5
:1055700002913246FEF732FF07464E4887426AD014
:10558000002F5BD12C20215C089A68460560182307
:105590002046FFF793FF074600284FD1414F1137B0
:1055A000287AC007029849D164E01F4648E0216A82
:1055B00034220020A854A961E8612A4618320392D7
:1055C000A26C0027AF622B63029BEB62384B2B600F
:1055D0001723B3FBF2F35B1C5343C91829627841CC
:1055E0006862354868600498A8603046FBF7E2FAC4
:1055F000A881EF8105982861F84314212A46FDF718
:1056000061FE6861A9893246FDF75CFE68612C2065
:10561000215CAB892A6A684606602046FEF752FE86
:1056200006462846203076B1206A039A06CA4140D1
:10563000114311B12046FFF7FDFA374600202860DC
:10564000384609B0F0BDA989026851180160416867
:1056500079414160F4E71348871D04980028EDDB89
:10566000E168226901208A4204D300212046FFF725
:105670006CFB012034216854E269AA61029BEB6152
:105680002C20215C684603602046039BFFF7B4FC96
:10569000284618300390A969E869069A0292079B88
:1056A0008EE7C0460101FF80FEFFFF7F480B02002E
:1056B000836668540701FF8018000100B0B50446F6
:1056C00000258560C56005614161C5620586456349
:1056D0008565104808302060204618301121FBF7FE
:1056E000A5FB54202554A564E56425652046B0BD7E
:1056F00080B500F005F880BC02BC8E4600F05EBAB2
:1057000010B504460348083020602046FFF774FEB9
:10571000204610BD50FB01000146006808B908682A
:1057200000B170470846083008607047012000212A
:10573000704780B502462820115C002029B191698C
:10574000101D00F037FA002180BD014680BD80B5F4
:1057500003462820195C002031B198698118181D72
:1057600000F028FA002180BD014680BDF0B589B067
:1057700005460F9E0E980290069284180396079392
:105780005E410896A8690590EE69281D00F010FAA0
:1057900004902868816B28468847012200270194DD
:1057A0008442104600D83846089C8C4200D83A46BD
:1057B0008C42079B00D010460599049A891A3A46F4
:1057C0007A41521EBE41069A891805915E4108BB76
:1057D0002868016B2846884702460B4605983146E3
:1057E000FAF726FE1343ABB900270198421EBC41CD
:1057F0002868016B28462346884702460B460298D4
:105800000599081803994E413146FAF711FE1343E2
:10581000FF1A5F41384609B0F0BD80B52821425CCF
:105820000021C9431AB1001D00F0C0F90146084625
:1058300080BD80B5014628200A5C002022B1081DE9
:1058400000F0B0F9002180BD014680BD026A416AC6
:105850001046704700A07047464C4153484941509C
:10586000000000000120704711207047F0B585B09E
:105870001D46164604460068416A2046884702468F
:105880000B4630462946FAF7D3FD1343002743BBA6
:10589000019603950B9D0A9E2068416A2046884721
:1058A00002460B460296304604952946FAF7C0FD9B
:1058B0001343B3B9029801994618049D03984541D2
:1058C0002068816B204688470122002386421746C4
:1058D000284600D91F46884200D91A46884200D07F
:1058E0001746384605B0F0BDF8B51C4617460546C4
:1058F0000068016B2846884702460B463846214619
:10590000FAF796FD134300261BBB07980699CF199B
:10591000444100267A1E2346B3412868016B28467D
:10592000884702460B4638462146FAF781FD134365
:105930007BB92868816B284688470122002387426B
:10594000164600D91E468C4200D91A468C4200D019
:105950001646304601B0F0BDF0B585B01D4616467E
:1059600004460068816A2046884702460B46304656
:105970002946FAF75DFD1343002743BB01960395C3
:105980000B9D0A9E2068816A2046884702460B4686
:105990000296304604952946FAF74AFD1343B3B9F7
:1059A000029801994618049D039845412068816B2F
:1059B000204688470122002386421746284600D900
:1059C0001F46884200D91A46884200D017463846FA
:1059D00005B0F0BD0120002170473821415C19B1AC
:1059E00040680168C96A08470020014670473821AD
:1059F000415C19B140680168096B08470020014605
:105A0000704700003821415C19B140680168496B5A
:105A1000084701487047C0465FF0FFFF01200021A2
:105A20007047014638200A5C002012B18869C969B4
:105A3000704701467047406810B10168896C08479B
:105A40000020704710B50C4631B1207820B12046B7
:105A5000FBF7B0F8802801D9002010BD03A1204633
:105A6000FBF720F80021091A484110BD202A2F3FDA
:105A70003A3B227C3C3E5C0010B5007B68B10020C4
:105A8000082207E0CB0703D0531E01249C4020438B
:105A9000521E4908002AF5D10146084610BD10B52E
:105AA000407B68B10020202207E0CB0703D0531EC3
:105AB00001249C402043521E4908002AF5D101468A
:105AC000084610BDF0B587B01C46069204910390BD
:105AD000006902900C9801900668002528460595FB
